{
  "contractName": "TaskContract",
  "abi": [
    {
      "anonymous": false,
      "inputs": [
        {
          "indexed": false,
          "internalType": "address",
          "name": "recipient",
          "type": "address"
        },
        {
          "indexed": false,
          "internalType": "uint256",
          "name": "taskId",
          "type": "uint256"
        }
      ],
      "name": "AddTask",
      "type": "event"
    },
    {
      "anonymous": false,
      "inputs": [
        {
          "indexed": false,
          "internalType": "uint256",
          "name": "taskId",
          "type": "uint256"
        },
        {
          "indexed": false,
          "internalType": "bool",
          "name": "isDeleted",
          "type": "bool"
        }
      ],
      "name": "DeleteTask",
      "type": "event"
    },
    {
      "inputs": [
        {
          "internalType": "string",
          "name": "taskText",
          "type": "string"
        },
        {
          "internalType": "bool",
          "name": "isDeleted",
          "type": "bool"
        }
      ],
      "name": "addTask",
      "outputs": [],
      "stateMutability": "nonpayable",
      "type": "function"
    },
    {
      "inputs": [],
      "name": "getMyTask",
      "outputs": [
        {
          "components": [
            {
              "internalType": "uint256",
              "name": "id",
              "type": "uint256"
            },
            {
              "internalType": "string",
              "name": "taskText",
              "type": "string"
            },
            {
              "internalType": "bool",
              "name": "isDeleted",
              "type": "bool"
            }
          ],
          "internalType": "struct TaskContract.Task[]",
          "name": "",
          "type": "tuple[]"
        }
      ],
      "stateMutability": "view",
      "type": "function",
      "constant": true
    },
    {
      "inputs": [
        {
          "internalType": "uint256",
          "name": "taskId",
          "type": "uint256"
        },
        {
          "internalType": "bool",
          "name": "isDeleted",
          "type": "bool"
        }
      ],
      "name": "deleteTask",
      "outputs": [],
      "stateMutability": "nonpayable",
      "type": "function"
    }
  ],
  "bytecode": "0x608060405234801561001057600080fd5b50610e84806100206000396000f3fe608060405234801561001057600080fd5b50600436106100415760003560e01c806320df458114610046578063aaba290714610062578063e08e86b81461007e575b600080fd5b610060600480360381019061005b9190610776565b61009c565b005b61007c60048036038101906100779190610808565b6101bf565b005b6100866102a0565b60405161009391906109f7565b60405180910390f35b60008080549050905060006040518060600160405280838152602001858152602001841515815250908060018154018082558091505060019003906000526020600020906003020160009091909190915060008201518160000155602082015181600101908161010c9190610c25565b5060408201518160020160006101000a81548160ff0219169083151502179055505050336001600083815260200190815260200160002060006101000a81548173ffffffffffffffffffffffffffffffffffffffff021916908373ffffffffffffffffffffffffffffffffffffffff1602179055507f1f54e1ba1832d428fbd7e7792beaf62b1fc5a382c207ffd614209c1413e94fda33826040516101b2929190610d47565b60405180910390a1505050565b3373ffffffffffffffffffffffffffffffffffffffff166001600084815260200190815260200160002060009054906101000a900473ffffffffffffffffffffffffffffffffffffffff1673ffffffffffffffffffffffffffffffffffffffff160361029c57806000838154811061023a57610239610d70565b5b906000526020600020906003020160020160006101000a81548160ff0219169083151502179055507ff88a35c3d2016c409a46570b994a17b408dbc83c14a03f521512d50b85386d068282604051610293929190610dae565b60405180910390a15b5050565b60606000805b60008054905081101561037e573373ffffffffffffffffffffffffffffffffffffffff166001600083815260200190815260200160002060009054906101000a900473ffffffffffffffffffffffffffffffffffffffff1673ffffffffffffffffffffffffffffffffffffffff161480156103575750600015156000828154811061033457610333610d70565b5b906000526020600020906003020160020160009054906101000a900460ff161515145b1561036b57818061036790610e06565b9250505b808061037690610e06565b9150506102a6565b5060008167ffffffffffffffff81111561039b5761039a610613565b5b6040519080825280602002602001820160405280156103d457816020015b6103c16105c1565b8152602001906001900390816103b95790505b5090506000915060005b6000805490508110156105b8573373ffffffffffffffffffffffffffffffffffffffff166001600083815260200190815260200160002060009054906101000a900473ffffffffffffffffffffffffffffffffffffffff1673ffffffffffffffffffffffffffffffffffffffff1614801561048f5750600015156000828154811061046c5761046b610d70565b5b906000526020600020906003020160020160009054906101000a900460ff161515145b156105a557600081815481106104a8576104a7610d70565b5b9060005260206000209060030201604051806060016040529081600082015481526020016001820180546104db90610a48565b80601f016020809104026020016040519081016040528092919081815260200182805461050790610a48565b80156105545780601f1061052957610100808354040283529160200191610554565b820191906000526020600020905b81548152906001019060200180831161053757829003601f168201915b505050505081526020016002820160009054906101000a900460ff16151515158152505082848151811061058b5761058a610d70565b5b602002602001018190525082806105a190610e06565b9350505b80806105b090610e06565b9150506103de565b50809250505090565b604051806060016040528060008152602001606081526020016000151581525090565b6000604051905090565b600080fd5b600080fd5b600080fd5b600080fd5b6000601f19601f8301169050919050565b7f4e487b7100000000000000000000000000000000000000000000000000000000600052604160045260246000fd5b61064b82610602565b810181811067ffffffffffffffff8211171561066a57610669610613565b5b80604052505050565b600061067d6105e4565b90506106898282610642565b919050565b600067ffffffffffffffff8211156106a9576106a8610613565b5b6106b282610602565b9050602081019050919050565b82818337600083830152505050565b60006106e16106dc8461068e565b610673565b9050828152602081018484840111156106fd576106fc6105fd565b5b6107088482856106bf565b509392505050565b600082601f830112610725576107246105f8565b5b81356107358482602086016106ce565b91505092915050565b60008115159050919050565b6107538161073e565b811461075e57600080fd5b50565b6000813590506107708161074a565b92915050565b6000806040838503121561078d5761078c6105ee565b5b600083013567ffffffffffffffff8111156107ab576107aa6105f3565b5b6107b785828601610710565b92505060206107c885828601610761565b9150509250929050565b6000819050919050565b6107e5816107d2565b81146107f057600080fd5b50565b600081359050610802816107dc565b92915050565b6000806040838503121561081f5761081e6105ee565b5b600061082d858286016107f3565b925050602061083e85828601610761565b9150509250929050565b600081519050919050565b600082825260208201905092915050565b6000819050602082019050919050565b61087d816107d2565b82525050565b600081519050919050565b600082825260208201905092915050565b60005b838110156108bd5780820151818401526020810190506108a2565b60008484015250505050565b60006108d482610883565b6108de818561088e565b93506108ee81856020860161089f565b6108f781610602565b840191505092915050565b61090b8161073e565b82525050565b60006060830160008301516109296000860182610874565b506020830151848203602086015261094182826108c9565b91505060408301516109566040860182610902565b508091505092915050565b600061096d8383610911565b905092915050565b6000602082019050919050565b600061098d82610848565b6109978185610853565b9350836020820285016109a985610864565b8060005b858110156109e557848403895281516109c68582610961565b94506109d183610975565b925060208a019950506001810190506109ad565b50829750879550505050505092915050565b60006020820190508181036000830152610a118184610982565b905092915050565b7f4e487b7100000000000000000000000000000000000000000000000000000000600052602260045260246000fd5b60006002820490506001821680610a6057607f821691505b602082108103610a7357610a72610a19565b5b50919050565b60008190508160005260206000209050919050565b60006020601f8301049050919050565b600082821b905092915050565b600060088302610adb7fffffffffffffffffffffffffffffffffffffffffffffffffffffffffffffffff82610a9e565b610ae58683610a9e565b95508019841693508086168417925050509392505050565b6000819050919050565b6000610b22610b1d610b18846107d2565b610afd565b6107d2565b9050919050565b6000819050919050565b610b3c83610b07565b610b50610b4882610b29565b848454610aab565b825550505050565b600090565b610b65610b58565b610b70818484610b33565b505050565b5b81811015610b9457610b89600082610b5d565b600181019050610b76565b5050565b601f821115610bd957610baa81610a79565b610bb384610a8e565b81016020851015610bc2578190505b610bd6610bce85610a8e565b830182610b75565b50505b505050565b600082821c905092915050565b6000610bfc60001984600802610bde565b1980831691505092915050565b6000610c158383610beb565b9150826002028217905092915050565b610c2e82610883565b67ffffffffffffffff811115610c4757610c46610613565b5b610c518254610a48565b610c5c828285610b98565b600060209050601f831160018114610c8f5760008415610c7d578287015190505b610c878582610c09565b865550610cef565b601f198416610c9d86610a79565b60005b82811015610cc557848901518255600182019150602085019450602081019050610ca0565b86831015610ce25784890151610cde601f891682610beb565b8355505b6001600288020188555050505b505050505050565b600073ffffffffffffffffffffffffffffffffffffffff82169050919050565b6000610d2282610cf7565b9050919050565b610d3281610d17565b82525050565b610d41816107d2565b82525050565b6000604082019050610d5c6000830185610d29565b610d696020830184610d38565b9392505050565b7f4e487b7100000000000000000000000000000000000000000000000000000000600052603260045260246000fd5b610da88161073e565b82525050565b6000604082019050610dc36000830185610d38565b610dd06020830184610d9f565b9392505050565b7f4e487b7100000000000000000000000000000000000000000000000000000000600052601160045260246000fd5b6000610e11826107d2565b91507fffffffffffffffffffffffffffffffffffffffffffffffffffffffffffffffff8203610e4357610e42610dd7565b5b60018201905091905056fea264697066735822122039b90d8d14e115249cb453060fea31ffb59fee19cb577b8365576717f510afd864736f6c63430008130033",
  "immutableReferences": {},
  "source": "// SPDX-License-Identifier: MIT\npragma solidity >=0.4.22 <0.9.0;\n\ncontract TaskContract {\n    event AddTask(address recipient, uint taskId);\n    event DeleteTask(uint taskId, bool isDeleted);\n\n    struct Task {\n        uint id;\n        string taskText;\n        bool isDeleted;\n    }\n\n    Task[] private tasks;\n\n    mapping(uint256 => address) taskToOwner;\n\n    function addTask(string memory taskText, bool isDeleted) external {\n        uint taskId = tasks.length;\n        tasks.push(Task(taskId, taskText, isDeleted));\n        taskToOwner[taskId] = msg.sender;\n        emit AddTask(msg.sender, taskId);\n    }\n\n    function getMyTask() external view returns (Task[] memory) {\n        uint counter = 0;\n        for (uint i = 0; i < tasks.length; i++) {\n            if (taskToOwner[i] == msg.sender && tasks[i].isDeleted == false) {\n                counter++;\n            }\n        }\n\n        Task[] memory result = new Task[](counter);\n\n        counter = 0;\n        for (uint i = 0; i < tasks.length; i++) {\n            if (taskToOwner[i] == msg.sender && tasks[i].isDeleted == false) {\n                result[counter] = tasks[i];\n                counter++;\n            }\n        }\n\n        return result;\n    }\n\n    function deleteTask(uint taskId, bool isDeleted) external {\n        if (taskToOwner[taskId] == msg.sender) {\n            tasks[taskId].isDeleted = isDeleted;\n            emit DeleteTask(taskId, isDeleted);\n        }\n    }\n}\n",
  "sourcePath": "/home/milan/Downloads/Solidity-Todo-List-with-Nextjs-Tailwind-CSS-Template/backend/contracts/TaskContract.sol",
  "compiler": {
    "name": "solc",
    "version": "0.8.19+commit.7dd6d404.Emscripten.clang"
  },
  "schemaVersion": "3.4.13",
  "updatedAt": "2023-04-30T11:13:44.849Z",
  "networkType": "ethereum",
  "devdoc": {
    "kind": "dev",
    "methods": {},
    "version": 1
  },
  "userdoc": {
    "kind": "user",
    "methods": {},
    "version": 1
  }
}